:400000000080002011000000754300007543000008B5044B1A6803F53F5302331A6004F0ABF900BFFA46004010B5054C237833B9044B13B10448AFF300800123237010BD5F
:40004000B081FF1F0000000070960000084B10B51BB108480849AFF300800848036803B910BD074B002BFBD0BDE81040184700BF0000000070960000B481FF1F0881FF1FE5
:400080000000000010B4002414E003EBC4000C4A32F8102092B211440133DBB201E000210B46072BF1D9C1F3CF01064B23F814100134E4B2052CF2D95DF8044B704700BF64
:4000C0005884FF1FDC83FF1F10B4002410E003EBC4010A4A32F8112092B2094820F8112001339BB200E00023072BF0D90134A4B2052CF8D95DF8044B704700BFF883FF1FB2
:400100005884FF1F052804D8034B33F8100080B200E0002000B27047DC83FF1F38B5022001214FF4804241F6FF7307F06DF8054608F0CEF8044612210246062308F0E2F817
:40014000204645F6A031064A92B208F0EFF82846214608F08DF82846012108F01BF838BDB884FF1F08B507F0E5FD07F075FE07F0F7FE07F075FDFFF7D1FF07F0CDFD07F08B
:400180007DFD08BD38B5022001214FF4804241F6FF7304F01DFF054608F09AF804460A210246062308F0AEF8204645F6A231064A92B208F0BBF82846214608F059F8284679
:4001C000012107F0E7FF38BDE883FF1F264B1B78834248D0D0B584B00446234B0022A3F84C20A3F84E20A3F85020A3F88020A3F88220A3F884201A855A859A859A63022878
:4002000012D104F0E3FC184BD865D86DDA6D01260027CDE90067CDE90267C117D31700F031FF124B186016E0042814D104F0CEFC0D4BC3F89000D3F89000D3F89020012636
:400240000027CDE90067CDE90267C117D31700F019FF064B1860044B1C701B78DBB2044A137004B0D0BD70470885FF1F8C83FF1FCC84FF1F204B00221A709A80DA801A8158
:400280005A819A81DA811A615A619A611A625A62A3F84C20A3F84E20A3F85020A3F85220A3F85420A3F856209A65DA651A679A67DA67A3F88020A3F88220A3F88420A3F8E9
:4002C0008620A3F88820A3F88A20C3F88C20C3F89020C3F89420C3F89C20C3F8A0201A855A859A85DA851A865A865A639A63DA635A649A64704700BF0885FF1F70B5274BB6
:400300009965D865996D264A9160D96D5160996DD86D091A1967196FD160996F1A6F0A449A679B6FB3F57A7F03DB4FF47A721B4B9A671A4B9B6F13F57A7F02DC194A174B6B
:400340009A67164DB5F84C2092B22B6F03FB02F2154880FB0234D217C2EB6411104EF161B5F84E2093B2AA6F02FB03F280FB0234D217C2EB64133362CC18B4F53E7F01DB83
:400380004FF43E7414F53E7F00DC084C20B200F0ABFB034B1C61014B186F70BD0885FF1FCC84FF1F18FCFFFF1F85EB5108FDFFFF00B585B0002303930293019340F2397367
:4003C000984201DD40F23A706FF4E763984200DA3748384B9863002804DA0022364B1A70404202E00122344B1A7001F61B0240F61B039A4200DC4942401A2E4BD863596CCA
:40040000DA6B0A445A645B6CB3F57A7F03DB4FF47A72284B5A64274B5B6C13F57A7F02DC264A244B5A642348028D92B2C36B03FB02F2234981FB02E3D217C2EB6312039245
:40044000438D9BB2426C02FB03F381FB0321DB17C3EB61130293039A029B13440193019BB3F53E7F02DB4FF43E730193019B002B01DC00230193019B2A2B01DD019B00E044
:400480002A230193019B9BB20E4A1380019B283B152B04DD019B283BC3F34F0300E00A23094A1380034BD86B05B05DF804FB00BFC6F8FFFF0885FF1F7765004018FCFFFF7F
:4004C0001F85EB51506A0040706A00402DE9F04F89B00A46CB17CDE900230B1A654EC6F89430DFF8A4C1CCF80400CCF80810D6F89430CCF80C30B6F880309BB20393D6F894
:4005000094301A1204925C4B1A6805925A609A6806921A60DC689C601D690795DD60D3F81480C3F81080D3F818A0C3F814A0D3F81C90C3F818901D6ADD615A6A1A625962D2
:40054000C1EBC10701EBC707DFF840E18EFB071BF917C1EBEB0102EBC20702EBC702474F87FB020BD217C2EB2B221144444A82FB050BED17C5EBAB15491B09EBC90509EB90
:4005800085098EFB09054FEAE979C9EB2519C9EB01012B2505FB0AFA87FB0A054FEAEA7ACAEBE51ACAEB010108EB4805C8EB051887FB08054FEAE878C8EBE518C8EB010149
:4005C0004FF0350B079D0BFB05FB8EFB0B0E4FEAEB7BCBEB2E1BCBEB010104EB041482FB0402E417C4EBA2128A1A069901EB011087FB00E7C017C0EB27200244059901EBB0
:400600004104204981FB0401E417C4EBE10422441046D1179A62B6F88240A4B2520942EAC16202FB04F2039C049D05FB0422DDE90045C3E90C45D3E91045C3E90E45D3E9BF
:400640001245C3E9104500240025C3E91245D3E91645C3E91445D3E91845C3E91645C3E91801B263B36BCCF81030D6F8940009B0BDE8F08F0885FF1FD081FF1F35064C635B
:40068000E1830F3E67666666CC84FF1F95204F090748037803F00303827D02F001021203818A42EA4333C1F30B02134343837047CC84FF1F10B507F03BF980B2024CA08268
:4006C00006F0DCF9A07510BDCC84FF1F08B504F0CFFA04F0B5FA002004F08EFA08BD00BF10B5074C2368636004F070FA20606268821AA260034A9065C2F88C0010BD00BFE2
:40070000D885FF1F0885FF1F08B504F05FFA08BD08B504F071FA08BD08B504F057FA08BD017842780E4B42EA01221A828178C27842EA01225A820179427942EA01229A82A7
:400740008179C27942EA0122DA82017A427A42EA01221A83817AC27A42EA01225A8370473882FF1F0278074B5A718178C27802EB01221A800179427902EB01225A808279F6
:400780001A717047BC85FF1F00B583B000230093ADF804308DF8063068203B216A46072300F08AFF03B05DF804FB00BF00B583B000238DF800308DF801308DF802308DF8B7
:4007C00003308DF804308DF805308DF80630682043216A46062300F06FFF03B05DF804FB38B514460F4B1870012305E0CA1812F8010C0C4AD0540133621C9A42F6DC002544
:400800000BE0621C68200749D2B2002306F004FB28B10A2007F09AFD0135042DF1DD002038BD00BF0886FF1F00B583B002A9802301F8013D6B200122FFF7D2FF03B05DF8AB
:4008400004FB00BF00B583B0FFF7EEFF192007F07DFD054B186801901A2001A90422FFF7BFFF03B05DF804FB7C96000008B507F0D5F806F01BFD0B490B780133DBB20B706B
:400880000A78D2B2084BA3FB0203DB0803EB83035B00D31ADBB20B700123044A1370044A137008BD8382FF1FCDCCCCCC8282FF1F8482FF1F08B504F0CDFA04F00BFC0020DD
:4008C00004F060FA002007F083F8002007F0EAF9012004F007FC08BD08B507F0D7F900230BE0154A11785A1C144830F8120003EBC103134921F813001346072BF1DD0E49D1
:400900000B780133DBB20F4AA2FB0302920802EB4202A3EB42030B700B4B1B780BB9FFF7D3FB0122084B1A70034B187807F012FA07F0A4F908BD00BF7882FF1FB884FF1F83
:40094000F883FF1FABAAAAAA8182FF1F00B583B0002301930093164BB3F90010B3F902200A44B3F904101144B3F906200A44B3F9083013440193019B0E4A82FB0312DB172D
:40098000C3EB62030093009BA3F61B030A4A53631378DBB2032B03D01378DBB2042B04D1054B986B596BFFF703FD03B05DF804FBE883FF1F676666660885FF1F10B5084C06
:4009C00008482146302201F05DF92046302101F085F9054A13780133DBB2137010BD00BF7C86FF1F4087FF1F7F82FF1F08B5002004F078FB04F078FA08BD00BF704700BF0F
:400A000008B500F0D3FC00F0A7F800F093FE1B4B1B78DBB2012B2ED10022184B1A70184B1B78DBB2092B23D8DFE803F005080B0E1114171A1D2000F085FE19E000F086FE65
:400A400016E000F087FE13E000F086FE10E000F089FE0DE000F0A4FE0AE000F0C1FE07E000F0E2FE04E000F0E1FE01E000F0EAFE00F0EEFECBE700F069FFC8E78282FF1F4B
:400A80008382FF1F074A138801339BB2138040F2E632934204D90022024B1A8001207047002070477A82FF1F08B506F033FF002006F0CAFE0A2006F0CDFE012004F018FB6F
:400AC00004F00CF8FFF75EFB04F0C4FA04F06EFA04F03CF8FFF7FAFD012007F0F5F8062007F0ECF808BD00BF10B50446B0F53E7F04DA10F53E7F03DC114C01E04FF43E74DF
:400B0000E3B2104A5370002C05DA644224B2002005F0AEFF02E0012005F0AAFFA4B22A2C38BF2A24204606F08FFEA4F1280040100A28B8BF0A2080B206F08CFE10BD00BF21
:400B400008FDFFFF0885FF1F08B506F079FF06F0ABFF06F09DFB08BD08B5FFF7A5FFFFF789FBFFF7F1FF00F08DF9FFF7FBFA00F0D9FC012007F0A8F862B600F009FDFFF710
:400B800061FE192007F0E2FBFFF75CFE192007F0DDFBFFF757FE192007F0D8FB00F002FD01200146002200F0E7FB00F075FC0122024B1A7003F0B2FB08BD00BF8682FF1F33
:400BC000827A0A4B1A80C27A5A80427B9A80827B9A71027ADA71427A1A72054B1B78012B03D162F07F02014B1A727047A487FF1F8682FF1F08B5104BDB79C3F30113012BF0
:400C000003D1037000230B7008BD022B0ED10B4A13780133DBB21370192B0CD903460020187001230B70FFF75FFF08BD0023034A137003700B7008BDA487FF1F8882FF1FF1
:400C400038B51B4B1B7813F0040F2ED00D46194B18700622903B1A70FF22A0331A70002440331C7005E00134AC4207D8012007F083FB0F4B1B7813F0010FF4D146220E4B1A
:400C80001A700B4B1B7813F0010FFAD0084B1B7813F0020F04D16022074B1A70002038BD6022054B1A70032038BD022038BD00BF6765004007650040888EFF1F38B5054634
:400CC0001446002304E0134AD25CCA540133DBB29AB2A242F7D31120002106F057FDB8B928464FF4FA71FFF7ABFF48B102200A4B1870FF22A0331A70002240331A7038BDDC
:400D000011200449E2B2012306F0D0FC002038BD012038BDB087FF1F7764004000B583B000238DF800308DF801308DF802308DF803308DF804308DF805308DF806308DF888
:400D40000730082069460246FFF7B8FF082308E002AA1A4412F8101C064A1A4411710133DBB20F2BF4D90448FFF72AFF03B05DF804FB00BF8882FF1F8C82FF1F38B5012092
:400D800001464FF4804241F6FF7303F0EDFE0D4C207007F09DFA02460B4D28703021062307F0B0FA287846F24D41084A92B207F0BDFA2078297807F05BFA2078012107F0B6
:400DC000E9F938BD8C88FF1F9088FF1F4087FF1F38B50120014641F6FF724FF4804303F0B1FF0D4C207007F073FA0C4D28703021FE22352307F086FA2878094989B246F246
:400E00004B4207F093FA2078297807F031FA2078012107F0BFF938BD3C87FF1FA087FF1FDC86FF1F10B50446002003F0ABFF06F0BDFD0A2007F0A0FA012006F033FF0120A1
:400E400007F09AFA012006F0C3FD012007F094FA002303E0E15C074AD15401332F2BF9DD054B1878012107F095F9012003F08AFF10BD00BFDC86FF1F3C87FF1F08B5FFF789
:400E8000D1FF08BD08B50420012106F0E1F806F055FD06F065FD06F07BFDFFF76FFF03F043FFFFF795FF03F095FF002006F0FAFE03F0E2FF04F018F804F0FEF808BD00BFBF
:400EC000014B1888704700BFA882FF1F0223002006E0084A32F8132092B210440133DBB2052BF6D9C0F38F00034B5882034B1880704700BFA888FF1F9488FF1FA882FF1F80
:400F00002DE9F84FDDE90A67DDE90C45824273EB010E08DA4FF0FF384FF0FF39DFF85CE1CEE9008907E04FF001084FF00009DFF84CE1CEE90089DFF84481C8E90245C8E9B2
:400F40000401101A63EB0101C8E90601C8E90867BB00B00043EA96714B0143EAD0634201101A63EB0101801979418B0043EA90738200801859410B0143EA1073020110463B
:400F8000194622462B4608F01BF8C8E90A018B00840043EA90756B0143EAD4636201121B63EB050380185941CB0043EA5073C2001046194642F21072002308F001F80446C3
:400FC0000D46C8E90C45D8E900AB4FEA8B034FEA8A0043EA9A714B0143EAD0634201101A63EB01011AEB000A4BEB010B4FEA8B0141EA9A714FEA8A0010EB0A0041EB0B01B9
:401000000B0143EA1073020106FB03F302FB0733A6FB0201194422462B4607F0D1FFC8E90E010022C8F84020C8F84420164617469046914610E018EB000849EB0109DFF886
:401040003CE0DEE9102312EB080243EB0903CEE91023013647F10007A64277EB0503EADB064CD4E91001064A002307F0A9FFC4E9100100200021BDE8F88F00BFC082FF1F26
:40108000809698002DE9F04F87B082468B46CDE90423DDE91023DDE9126710461946002A73F1000402DA504263EB430105460C4632463B46002E77F1000102DA724267EBF2
:4010C000470316461F46009501940292039350465946DDE90423FFF713FF574BD3E90601002871F1000302DA404261EB4101524BD3E91023002A73F1000E02DA524263EBA3
:4011000043039046994692185B41904271EB030327DA06FB01F307FB0033A6FB00451D442046294607F064FC07F08EF907F064FF05460C460090019102960397504659469E
:40114000DDE90423FFF7DCFE3B4B98690028B8BF4042C1171B6C83EAE378A8EBE3784FEAE879B0EB080061EB0901B0EB080861EB0909314EC6E912894FEA89034FEA88000A
:4011800043EA98714B0143EAD0634201101A63EB010118EB000849EB01094FEA890343EA98734FEA880218EB020049EB03010B0143EA10730201104619462A46234607F006
:4011C000FFFE8B00840043EA90756B0143EAD4636201121B63EB050380185941CB0043EA5073C2001046194642F21072002307F0E7FEC6E91401002871F1000303DA002094
:401200000021C6E914010C4CD4E90C23C4E91623D4E91401161843EB0107C4E9186792185B4180185941C4E91A0100220023C4E91C2307B0BDE8F08FC082FF1F2DE9F84340
:401240003F4BD3E91C2352EA03040AD13C4C00260027C4E91E67C4E92067C4E92267C4E92467374C04F15805D5E90045944275EB03060DDBDFF8C8E0DEE91E89CEE92089D6
:40128000DEE90E6716EB080647EB0907CEE91E67A24273EB05040DDB294C04F16005D5E90045944275EB030404DB254ED6E92045C6E91E45224C04F16005D5E90045A242EC
:4012C00073EB050415DB1E4C04F16805D5E90045944275EB03040CDB194ED6E91E89C6E92089D6E90E45B8EB040469EB0505C6E91E459042994119DB114C013243F10003EB
:40130000C4E91C23D4E92401D4E91E2380185941C4E924010B4A002307F052FEC4E92201D4E9042380185941BDE8F883044BD3E92201D3E9042380185941BDE8F88300BFF6
:40134000C082FF1F8096980008B5094A137A0133DBB213727C2B09D90022054B1A72054B187880F00100187003F042FD08BD00BF6083FF1F0C81FF1F38B50D46144610F020
:40138000010F0CBF0120002003F03EFD15F0010F0CBF0120002006F095FB14F0010F0CBF0120002006F09AFB38BD00BF08B5012000210A46FFF7E0FFFA2006F0C7FF0020C3
:4013C00001210246FFF7D8FFFA2006F0BFFF002001460122FFF7D0FFFA2006F0B7FF002001460246FFF7C8FFFA2006F0AFFF08BD70B5274CE468632C03D80126244D2E745C
:4014000002E00026224D2E740134214DEC60C72C02D900251E4CE5601BB14FF4FA641D4B5C601C4B5B6813B1013B1A4C6360194B5B681BB90124164B5C7402E00024144B68
:401440005C74012A03D0124B9B7C012B06D1104B01229A74187C0022114616E0012909D001280BD00A4B5B7C012B0BD10122002108460AE000221146012006E0002201211D
:40148000084602E0002201211046FFF775FF70BD6083FF1F0C81FF1F10B50020012103F043FF002407E003F083FF50B9012006F04DFF0134A4B240F6C3139C42F3D9002393
:4014C00000E001231BB104F00FF9012010BD002010BD00BF08B504F039F980B1084804F051F980B2074B188048B101B20448013100F0FCFB044A13780133DBB2137008BDD5
:40150000B888FF1F7483FF1F7E82FF1F38B505460C4604F029F918B12846A1B204F0F2F838BD00BF08B505F061FE002005F018FE08BD00BF08B5024B187005F011FE08BD43
:401540007A83FF1F014B1878704700BF7A83FF1F08B50E4A1378013303F003031370012B09D013B1032B0CD008BDFFF70DF90222064B5A7008BDFFF719F90122034B5A70B8
:4015800008BD0022014B9A7008BD00BF7B83FF1F08B54FF40042024B1A6005F0C3FA08BD00E100E008B50422024B1A6005F0D8FE08BD00BF00E100E038B5184B1B7813F06D
:4015C000040F29D00D46164B18700422013B1A70002405E00134AC4207D8012006F0CCFE104B1B7813F0010FF4D146220E4B1A700C4B1B7813F0010FFAD00A4B1B7813F008
:40160000020F04D16022084B1A70002038BD6022054B1A70032038BD022038BDD9490040D8490040D7490040768EFF1F08B51F4B5B78012B10D10278437843EA02221C4B8C
:40164000DA808178C27842EA01221A810179427942EA01225A8108BD022B10D10278437843EA0222124B1A808178C27842EA01225A800179427942EA01229A8008BD032B57
:4016800009D10278437803F03F0303EB8213094A1380938008BD042B02D1FFF741F808BD052B01D1FFF75EF808BD00BF7B83FF1F6C86FF1FF885FF1F70B505460E461C46F0
:4016C000002304E01249C95CD1540133DBB299B2A142F7D30E48FFF7A9FF2846002105F069FC90B930464FF4FA71FFF765FF20B10022084B1A70022070BD28460449E2B273
:40170000012305F0EFFB002070BD012070BD00BF1C89FF1FD74900402922014B1A7070471481FF1F024A136801331360704700BF8083FF1F08B5FFF7EFFF08BD08B5FFF780
:40174000F1FF08BD08B5FFF703FF08BD08B5FFF7E5FA08BD704700BF08B505F095F9FFF7B5FB08BD10B5FFF7EFFD0C4B1B88B3F57A7F02D80133094A1380084CA01CE11C7F
:40178000FFF738FA2079A178E2786379FFF730FE63790BB10022627110BD00BF8483FF1F38B5FEF79DFF0C4B1B78DBB2022B04D0094B1B78DBB2042B0CD1084DA868C11704
:4017C000FFF73CFD044CE065A868C117FFF736FDC4F8900038BD00BF0885FF1F8483FF1F08B5104B1B78DBB2022B05D10D4BD86D996DFEF783FD0BE00A4B1B78DBB2042B62
:4018000006D1084BD3F89000D3F88C10FEF75EFE044B1B7813F0FF0F02D10020FFF764F908BD00BF0885FF1F704700BF08B5044B1B7823B1FEF726FC0022014B1A7008BD46
:401840008182FF1F08B5FFF779FFFFF71BF908BD08B5314B1B7813F0FF0F06D000222E4B1A7000F003FB2D4B1873FFF733FE2C4B1B7813F0FF0F08D00022294B1A7000F05A
:40188000FFFA264B587301229A70244B1B7BC3B10023224A137305E0224AD15C224AD1540133DBB2232BF7D91F4800F01BFBC0B2022802D10122194B5A711C4B187806F02F
:4018C00097FC1B4B1B7873B11A4B1B78DBB21A4A1278934207D01948194B1978FFF7CEFA0022134B1A700D4B5B7BA3B100230B4A537305E0134AD15C134AD1540133DBB289
:40190000232BF7D9104800F0EDFAC0B2022802D10122024B5A7108BD7F82FF1F8483FF1F7E82FF1F048BFF1F5889FF1F8C88FF1FA782FF1F8382FF1FA582FF1FC887FF1F8F
:40194000A682FF1F608CFF1F3489FF1F08B5044B987B80F00100987305F0B0FC08BD00BF8483FF1F704700BF10B4040E0C70C0F307411170C0F307221A70019B18705DF834
:40198000044B7047C0F307230B701070704700BF002301E0C25401338B42FBD3704700BF2DE9F04182B006460D461446BDF92080BDF9247000218DF807108DF80610414980
:4019C0000878314600F07AFA0123A3709D4239D10323E37040460DF107010DF10602FFF7D1FF9DF8073023719DF80630637138460DF107010DF10602FFF7C4FF9DF807308D
:401A0000A3719DF80630E37132232372642363729623A372C823E372FA232373FF2363730023A373E373227963791A44C832264B1340002B03DA013B63F0FF0301332374EE
:401A400011203CE0022D39D10223E37040460DF107010DF10602FFF795FF9DF8073023719DF80630637138460DF107010DF10602FFF788FF9DF80730A3719DF80630E37147
:401A800032232372642363729623A372C823E372FA232373FF2363730023A373E373227963791A44C832084B1340002B03DA013B63F0FF0301332374112000E0002002B0DC
:401AC000BDE8F0811481FF1FFF00008030B583B00446C37813F0010342D08279C37903EB02239AB2017943791944037A1944837A19442B4B0B40002B03DA013B63F0FF0331
:401B00000133DBB2217C994214D12078254D009313B2019302212A462423FFF741FF224CC2B22846214600F067F92046302102F001FC32E020781B4D7B230093EA230193F0
:401B400002212A462423FFF72BFF174CC2B22846214600F051F92046302102F0EBFB1CE0DBB98279C37903EB02239DB200F0B2F998B12378282B07D10C4B1A6801321A609D
:401B800022791A71DD8008E0292B06D1074B9A6801329A6022791A73DD8103B030BD00BFFF0000807C89FF1F208DFF1F9883FF1F0B68632B09D8C2540B6801330B607047C2
:401BC000591EC45C4454013301E010B40123632BF6D980F863205DF8044B704770B40C68632C08D9002410E0165D46550D6801350D60013400E000240D68EE18632EF3D9B3
:401C0000611C994214D01B1B013B2BB910E0CD1A465C4655013100E019466329F7D9C3F1640303E0115DC15401340133632BF9D970BC704710B530B90C46064806492246FF
:401C4000FFF7B6FF10BD012803D102480249FFF7C5FF10BD048AFF1FA883FF1F10B530B90C46064806492246FFF7A2FF10BD012803D102480249FFF7B1FF10BDA089FF1F29
:401C8000AC83FF1F70B405460378ED2B18D100231FE02B5CED2B10D1034600240AE0EE5C0E550133DBB2B3FBF2F602FB1633DBB20134E4B29442F2D30EE00130C0B200E045
:401CC00001209042E5D3002006E0E85CC8540133DBB29342F9D3002070BC704708B502460B4601200021FFF7A5FF08BD08B502460B4601200021FFF7B1FF08BD2DE9F0412D
:401D00009AB00646002084466DE016F80C30ED2B67D106EB0C035F780CEB070E0EF1030EBEF1640F5DD816F80E30EE2B59D107E0F55C1AAC144404F8645C0132013301E009
:401D4000634600227345F3D900231A4606E01AAC144414F8624C2344DBB20132BA42F6D302371AAA3A4412F8642C9A421CD0634631E01AAB134413F8644C04F11303DBB2E1
:401D8000012B01D9E92C02D1B8F1000F08D000EB40031B010B445C5501354FF0000801E04FF00108013203E04FF0000845460222BA42DED30130C0B20E4A136801331360DF
:401DC000634602E00022F25401337345FAD908E00022F25401337345FAD9064A5368013353600CF1010CBCF1610F8ED91AB0BDE8F08100BFB083FF1FF0B5002302E0AA243A
:401E0000CC5401332F2BFAD9022400273B4614E000EB030EC65C06F11305EDB2012D01D9E92E07D10137E9250D5501349EF800500D5500E00E55013401339A42E8D8D41942
:401E400000231A4604E0881880780344DBB20132A242F8D3ED220A70E0B24870A21C8B540334EE230B550330C0B2F0BD08B502480249FFF743FF08BD048AFF1F048BFF1F9B
:401E800008B502480249FFF739FF08BDA089FF1F608CFF1F4378074A1278934205D0064A1278934203D104207047012070470020704700BF1481FF1F1581FF1F70B50646A8
:401EC0000D461446104619460022FFF761FD2670657070BD027843789A4201D9012070470020704738B50546C3785C08FFF7D2FF012840F007837F2C00F20283DFE814F06A
:401F0000800085008A008F00940099009E00A300A800AD00B200B700BC00C100C600CB00D000D500DA00DF00E400E900EE00F300F800FD00020107010C01110116011B01EB
:401F4000200125012A012F01340139013E01430148014D01520157015C01610166016B01700175017A017F01840189018E01930198019D01A201A701AC01B101B601BB0191
:401F8000C001C501CA01CF01D401D901DE01E301E801ED01F201F701FC01010206020B02100215021A021F02240229022E02330238023D02420247024C02510256025B023E
:401FC000600265026A026F02740279027E02830288028D02920297029C02A102A602AB02B002B502BA02BF02C402C902CE02D302D802DD02E202E702EC02F102F602FB02F1
:40200000284601F04DFE022038BD2846FFF75EFD022038BD284601F045FE022038BD284601F042FE022038BD284601F03FFE022038BD284601F03CFE022038BD284601F0D8
:4020400039FE022038BD284601F036FE022038BD284601F033FE022038BD284601F030FE022038BD284601F02DFE022038BD284601F02AFE022038BD284601F027FE022038
:4020800038BD284601F024FE022038BD284601F021FE022038BD284601F01EFE022038BD284601F01BFE022038BD284601F018FE022038BD284601F015FE022038BD28465A
:4020C00001F012FE022038BD2846AFF30080022038BD284601F0CAFE022038BD284601F0C9FF022038BD284602F00EF9022038BD284601F0FBFD022038BD284601F0F8FD65
:40210000022038BD284601F0F5FD022038BD284601F0F2FD022038BD284601F0EFFD022038BD284601F0ECFD022038BD284601F0E9FD022038BD284601F0E6FD022038BD45
:40214000284601F0E3FD022038BD284601F0E0FD022038BD284601F0DDFD022038BD284601F0DAFD022038BD284601F0D7FD022038BD284601F0D4FD022038BD284601F029
:40218000D1FD022038BD284601F0CEFD022038BD2846AFF30080022038BD2846AFF30080022038BD2846AFF30080022038BD284601F036FD022038BD284601F065FD022078
:4021C00038BD2846AFF30080022038BD2846AFF30080022038BD2846AFF30080022038BD284601F0A3FD022038BD284601F0A0FD022038BD284601F09DFD022038BD28464E
:4022000001F09AFD022038BD284601F097FD022038BD284601F094FD022038BD284601F091FD022038BD284601F08EFD022038BD284601F08BFD022038BD284601F088FD07
:40224000022038BD284601F085FD022038BD284601F082FD022038BD2846AFF30080022038BD284601F06AFC022038BD284601F075FD022038BD284601F072FD022038BD0A
:40228000284601F06FFD022038BD284601F06CFD022038BD284601F069FD022038BD284601F066FD022038BD284601F063FD022038BD284601F060FD022038BD284601F0A0
:4022C0005DFD022038BD284601F05AFD022038BD284601F057FD022038BD284601F054FD022038BD284601F051FD022038BD284601F04EFD022038BD284601F04BFD0220C1
:4023000038BD284601F048FD022038BD284601F045FD022038BD284601F042FD022038BD284600F09BFE022038BD2846AFF30080022038BD284601F03BF9022038BD2846B3
:4023400001F0CCF9022038BD284601F063FA022038BD284600F062FF022038BD284600F0EBFE022038BD284601F026F8022038BD284601F017FD022038BD284601F014FDFB
:40238000022038BD284601F07FFB022038BD284601F00CFD022038BD284601F009FD022038BD284601F006FD022038BD284601F003FD022038BD284601F000FD022038BDB9
:4023C000284601F0FDFC022038BD284601F0FAFC022038BD284601F0F7FC022038BD284601F0F4FC022038BD284600F077F9022038BD284600F0F8FA022038BD284600F089
:4024000057FC022038BD284601F0E2FC022038BD284601F0DFFC022038BD284601F050FF022038BD284601F0D7FC022038BD284601F0D4FC022038BD284601F0D1FC0220EB
:4024400038BD284601F0CEFC022038BD284601F0CBFC022038BD284601F0C8FC022038BD284601F0C5FC022038BD284601F0C2FC022038BD284601F0BFFC022038BD2846A6
:4024800001F0BCFC022038BD284601F0B9FC022038BD284601F0B6FC022038BD284601F0B3FC022038BD284601F0B0FC022038BD284600F049FC022038BD284600F05CFD51
:4024C000022038BD284601F0A3FC022038BD284601F0A0FC022038BD284601F09DFC022038BD284601F09AFC022038BD284601F097FC022038BD284601F094FC022038BD74
:40250000032038BD022805D0032805D0042805D0012038BD002038BD002038BD002038BD70B584B006460D46144600218DF80F108DF80E108DF80D108DF80C106349087805
:402540003146FFF7BBFC0123A3709D423FD1C923E3709DF8203023719DF824306371BDF830000DF10F010DF10E02FFF70BFA9DF80F30A3719DF80E30E3719DF8283023720F
:4025800003AB00930B980DF10F010DF10E020DF10D03FFF7E9F99DF80F3063729DF80E30A3729DF80D30E3729DF80C302373BDF834000DF10F010DF10E02FFF7E3F99DF8AA
:4025C0000F3063739DF80E30A3730F207BE0022D74D1C823E3703E4DE8880DF10F010DF10E02FFF7CFF99DF80F3023719DF80E30637128890DF10F010DF10E02FFF7C2F93F
:402600009DF80F30A3719DF80E30E37168890DF10F010DF10E02FFF7B5F99DF80F3023729DF80E306372FEF74BFC0DF10F010DF10E02FFF7A7F99DF80F30A3729DF80E301F
:40264000E3720020FDF75EFD0DF10F010DF10E02FFF798F99DF80F3023739DF80E30637302F0B4FA03AB00930DF10F010DF10E020DF10D03FFF778F99DF80F30A3739DF8EF
:402680000E30E3739DF80D3023749DF80C306374104B586B80B20DF10F010DF10E02FFF771F99DF80F30A3749DF80E30E3740A4BDA7922751B7A6375162004E04FF48060AB
:4026C000FFF750F9002004B070BD00BF1481FF1F6C86FF1F0885FF1FA487FF1F30B587B00446C37813F0010344D0274B1B78DBB2032B07D18279C37903EB02231BB2224A4D
:4027000093630BE0204B1B78DBB2012B06D1407BA37B03EB002000B2FEF7E6F9237A012B0BD1607AA37A1B0403EB0063E07A03EB0023207B1844FDF7EBFF2078134D002356
:4027400000930193029303930493059302212A462423FFF7E5FE0E4CC2B228462146FFF74BFB2046302101F0E5FD20463021FEF7CDFE07E033B9FFF7ADFB18B14FF4007058
:40278000FFF7F0F807B030BD0885FF1F5C8DFF1F208DFF1F70B584B006460D46144600218DF80F108DF80E108DF80D108DF80C108A4908783146FFF781FB0123A3709D42CB
:4027C00040F09080CB23E370BDF820000DF10F010DF10E02FFF7D6F89DF80F3023719DF80E306371BDF824000DF10F010DF10E02FFF7C8F89DF80F30A3719DF80E30E371DA
:40280000BDF828000DF10F010DF10E02FFF7BAF89DF80F3023729DF80E3063729DF82C30A3729DF83030E37203AD00950E980DF10F010DF10E020DF10D03FFF795F89DF869
:402840000F3023739DF80E3063739DF80D30A3739DF80C30E37300950F980DF10F010DF10E020DF10D03FFF77FF89DF80F3023749DF80E3063749DF80D30A3749DF80C3029
:40288000E374009510980DF10F010DF10E020DF10D03FFF769F89DF80F3023759DF80E3063759DF80D30A3759DF80C30E375009511980DF10F010DF10E020DF10D03FFF77B
:4028C00053F89DF80F3023769DF80E3063769DF80D30A3769DF80C30E3769DF8343023771D2079E0022D72D1CA23E3703C4DE8880DF10F010DF10E02FFF744F89DF80F3069
:4029000023719DF80E30637128890DF10F010DF10E02FFF737F89DF80F30A3719DF80E30E37168890DF10F010DF10E02FFF72AF89DF80F3023729DF80E3063720020FDF711
:40294000E1FB80B20DF10F010DF10E02FFF71AF89DF80F30A3729DF80E30E3720120FDF7D1FB80B20DF10F010DF10E02FFF70AF89DF80F3023739DF80E306373FDF7CCFE1C
:4029800003AB00930DF10F010DF10E020DF10D03FEF7EAFF9DF80F30A3739DF80E30E3739DF80D3023749DF80C3063740D4B586B80B20DF10F010DF10E02FEF7E3FF9DF8D5
:4029C0000F30A3749DF80E30E374142004E04FF48060FEF7C7FF002004B070BD1481FF1F6C86FF1F0885FF1F2DE9F04F8BB00446C37813F0010300F09780514B1B78DBB213
:402A0000042B15D10279437903EB02239BB24C4AA2F880308179C37903EB01239BB2A2F88230017A437A03EB01239BB2A2F88430E07AFEF77FFDA27A424B1A70237F012B78
:402A400055D1207B637B1B0403EB0063A07B03EB0023E07B1844227C637C1B0403EB0263A27C03EB0223E27C1A44217D637D1B0403EB0163A17D03EB0123E17D5D18217EF7
:402A8000637E1B0403EB0163A17E03EB0123E17E0B442B490978C9B2042928D1284EB6F880901FFA89F9B6F882801FFA88F8B6F88470BFB20021A6F88010A6F88210A6F807
:402AC0008410AA464FEAE57BCDE900AB9A464FEAE37BCDE902ABC117D317FEF7D3FA1A4B1860A6F88090A6F88280A6F884702078164D00230093019302930393049305939E
:402B0000069307930893099302212A462423FFF741FE0F4CC2B228462146FFF76DF920463021FEF7ABF907E033B9FFF7D3F918B14FF40070FEF716FF0BB0BDE8F08F00BF13
:402B40000885FF1F6083FF1F8C83FF1F5C8DFF1F208DFF1F70B584B006460D46144600218DF80F108DF80E108DF80D108DF80C104D4908783146FFF7A1F90123A3709D427A
:402B80003BD1CD23E370BDF820000DF10F010DF10E02FEF7F7FE9DF80F3023719DF80E306371BDF824000DF10F010DF10E02FEF7E9FE9DF80F30A3719DF80E30E371BDF847
:402BC00028000DF10F010DF10E02FEF7DBFE9DF80F3023729DF80E306372BDF82C000DF10F010DF10E02FEF7CDFE9DF80F30A3729DF80E30E3720C2053E0022D4CD1CC234A
:402C0000E3702A4D686B80B20DF10F010DF10E02FEF7B8FE9DF80F3023719DF80E306371E86B03AE00960DF10F010DF10E020DF10D03FEF799FE9DF80F30A3719DF80E30E4
:402C4000E3719DF80D3023729DF80C306372686C00960DF10F010DF10E020DF10D03FEF783FE9DF80F30A3729DF80E30E3729DF80D3023739DF80C30637368780DF10F01DB
:402C80000DF10E02FEF77EFE9DF80F30A3739DF80E30E373102004E04FF48060FEF762FE002004B070BD00BF1481FF1F0885FF1F30B585B0C37813F0010334D01F4B1B787B
:402CC000DBB2032B18D10279437903EB02239BB21A4A13858179C37903EB01239BB25385017A437A03EB01239BB29385817AC37A03EB01231BB293630078114D00230093E8
:402D000001930293039302212A462423FFF722FF0C4CC2B228462146FFF76EF820463021FEF7ACF807E033B9FFF7D4F818B14FF40070FEF717FE05B030BD00BF0885FF1F6F
:402D40005C8DFF1F208DFF1F08B5C37813F0010304D04FF40070FEF705FE08BD33B9FFF7B9F818B14FF40070FEF7FCFD08BD00BFF0B585B006460D4614469DF8287000219C
:402D80008DF80F108DF80E108DF80D108DF80C10754908783146FFF791F80123A3709D4223D1F323E37027719DF82C306371BDF830000DF10F010DF10E02FEF7E3FD9DF81A
:402DC0000F30A3719DF80E30E371BDF834000DF10F010DF10E02FEF7D5FD9DF80F3023729DF80E3063720A20BBE0022D40F0B480F223E37027715D4DE8880DF10F010DF1FE
:402E00000E02FEF7BFFD9DF80F3063719DF80E30A37128890DF10F010DF10E02FEF7B2FD9DF80F30E3719DF80E30237268890DF10F010DF10E02FEF7A5FD9DF80F306372F4
:402E40009DF80E30A37228880DF10F010DF10E02FEF798FD9DF80F30E3729DF80E30237368880DF10F010DF10E02FEF78BFD9DF80F3063739DF80E30A373A8880DF10F0128
:402E80000DF10E02FEF77EFD9DF80F30E3739DF80E302374FEF714F80DF10F010DF10E02FEF770FD9DF80F3063749DF80E30A3740020FDF727F90DF10F010DF10E02FEF7A7
:402EC00061FD9DF80F30E3749DF80E3023750120FDF718F90DF10F010DF10E02FEF752FD9DF80F3063759DF80E30A375FDF70CFC03AB00930DF10F010DF10E020DF10D035A
:402F0000FEF732FD9DF80F30E3759DF80E3023769DF80D3063769DF80C30A376144B586B80B20DF10F010DF10E02FEF72BFD9DF80F30E3769DF80E3023770E4B1A88627745
:402F40005A88A2779A79E277DA7984F820201B7A84F82130222004E04FF48060FEF702FD002005B0F0BD00BF1481FF1F6C86FF1F0885FF1FA487FF1F70B584B00446C37866
:402F800013F0010337D006794079FDF71FF91F4B1B78DBB2032B07D1A279E37903EB02231BB21A4A93630BE0184B1B78DBB2012B06D1207A637A03EB002000B2FDF794FD51
:402FC0002078134D0096002301930293039302212A462423FFF7CCFE0E4CC2B228462146FEF70AFF2046302101F0A4F920463021FEF78CFA07E033B9FEF76CFF18B14FF470
:403000000070FEF7AFFC04B070BD00BF0885FF1F5C8DFF1F208DFF1F70B506460D4614460D4908783146FEF749FF0123A3709D4203D1A123E370042070BD022D06D1A023A0
:40304000E370BDF910302371052070BD4FF48060FEF788FC002070BD1481FF1F30B583B0C37813F0010314D00F4B1B7800780F4D009302212A462423FFF7CEFFC2B20C4C8A
:4030800028462146FEF7B8FE01462046FDF7F6FE07E033B90479FEF71DFF10B92046FDF795F803B030BD00BF0885FF1F5C8DFF1F208DFF1F70B582B006460D46144600219D
:4030C0008DF807108DF806101A4908783146FEF7F5FE0123A3709D4203D1AD23E370042026E0022D1FD1AC23E370BDF91C000DF107010DF10602FEF745FC9DF8073023716B
:403100009DF806306371BDF918000DF107010DF10602FEF737FC9DF80730A3719DF80630E371082004E04FF48060FEF71BFC002002B070BD1481FF1F30B583B0C37813F0AC
:40314000010318D00078184B5A6B9B6B174D12B200921BB2019302212A462423FFF7AAFF134CC2B228462146FEF746FE01462046FDF784FE15E0A3B98279C37903EB02238A
:403180009CB2FEF7A7FE20B14FF40070FEF7EAFB07E0054B1B78DBB2032B02D123B2024A936303B030BD00BF0885FF1F5C8DFF1F208DFF1F70B582B006460D46144600210D
:4031C0008DF807108DF80610134908783146FEF775FE0123A3709D4203D1AB23E370042018E0022D11D1AA23E370BDF918000DF107010DF10602FEF7C5FB9DF80730237196
:403200009DF806306371062004E04FF48060FEF7A9FB002002B070BD1481FF1F30B583B0C37813F0010314D00078134B5B78134D009302212A462423FFF7BCFF104CC2B242
:4032400028462146FEF7D8FD01462046FDF716FE10E07BB90279437903EB02239CB2FEF739FE38B9044B1B78DBB2012B02D120B2FDF73AFC03B030BD0885FF1F5C8DFF1F65
:40328000208DFF1F70B584B006460D46144600218DF80F108DF80E108DF80D108DF80C10444908783146FEF709FE0123A3709D4203D1AF23E370042079E0022D72D1AE23F7
:4032C000E37003AD009508980DF10F010DF10E020DF10D03FEF748FB9DF80F3023719DF80E3063719DF80D30A3719DF80C30E371009509980DF10F010DF10E020DF10D03BA
:40330000FEF732FB9DF80F3023729DF80E3063729DF80D30A3729DF80C30E37200950A980DF10F010DF10E020DF10D03FEF71CFB9DF80F3023739DF80E3063739DF80D30FB
:40334000A3739DF80C30E37300950B980DF10F010DF10E020DF10D03FEF706FB9DF80F3023749DF80E3063749DF80D30A3749DF80C30E37400950C980DF10F010DF10E023D
:403380000DF10D03FEF7F0FA9DF80F3023759DF80E3063759DF80D30A3759DF80C30E375182004E04FF48060FEF7DCFA002004B070BD00BF1481FF1F2DE9F04F87B0C378B2
:4033C00013F001031CD000784D4B9E6D1C6E596E9A6EDB6E4B4D0096019402910392049302212A462423FFF74DFF474CC2B228462146FEF701FD01462046FDF73FFD7BE078
:40340000002B79D1057A437A1B0403EB0563857A03EB0523C57A1D44047B437B1B0403EB0463847B03EB0423C47B1C44027C437C1B0403EB0263827C03EB0223C67C1E44E9
:40344000027D437D1B0403EB0263827D03EB0223C77D1F44FEF73EFD20B14FF40070FEF781FA49E0264B1D665C669E66DF661B78DBB2022B10D13246F317CDE900233A468D
:40348000FB17CDE902232846E9172246E317FDF7F9FD1E4B18602FE0194B1B78DBB2042B2AD1DFF85C80B8F880B01FFA8BFBB8F882A01FFA8AFAB8F884901FFA89F90023A4
:4034C000A8F88030A8F88230A8F884303246F317CDE900233A46FB17CDE902232846E9172246E317FDF7CEFD084B1860A8F880B0A8F882A0A8F8849007B0BDE8F08F00BFD4
:403500000885FF1F5C8DFF1F208DFF1F8C83FF1F70B582B006460D46144600218DF807108DF80610214908783146FEF7C7FC0123A3709D4203D1A523E370042034E0022DB4
:403540002DD1A423E370BDF818000DF107010DF10602FEF717FA9DF8073023719DF806306371BDF81C000DF107010DF10602FEF709FA9DF80730A3719DF80630E371BDF8CC
:4035800020000DF107010DF10602FEF7FBF99DF8073023729DF8063063720A2004E04FF48060FEF7DFF9002002B070BD1481FF1F70B584B0C37813F001031BD000781C4BE0
:4035C000198D5A8D9B8D1B4D09B2009112B201921BB2029302212A462423FFF799FF164CC2B228462146FEF707FC01462046FDF745FC1BE0D3B90279437903EB02239EB29B
:403600008279C37903EB02239DB2027A437A03EB02239CB2FEF75EFC20B14FF40070FEF7A1F903E0024B1E855D859C8504B070BD0885FF1F5C8DFF1F208DFF1F70B582B06A
:4036400006460D46144600218DF807108DF80610214908783146FEF731FC0123A3709D4203D1A723E370042034E0022D2DD1A623E370BDF818000DF107010DF10602FEF720
:4036800081F99DF8073023719DF806306371BDF81C000DF107010DF10602FEF773F99DF80730A3719DF80630E371BDF820000DF107010DF10602FEF765F99DF807302372BF
:4036C0009DF8063063720A2004E04FF48060FEF749F9002002B070BD1481FF1F70B584B0C37813F001031ED000781F4BB3F84C10B3F84E20B3F850301C4D09B2009112B2E1
:4037000001921BB2029302212A462423FFF796FF174CC2B228462146FEF76EFB01462046FDF7ACFB1EE0EBB90279437903EB02239EB28279C37903EB02239DB2027A437ACF
:4037400003EB02239CB2FEF7C5FB20B14FF40070FEF708F906E0044BA3F84C60A3F84E50A3F8504004B070BD0885FF1F5C8DFF1F208DFF1F70B582B006460D46144600210A
:403780008DF807108DF80610214908783146FEF795FB0123A3709D4203D1A923E370042034E0022D2DD1A823E370BDF818000DF107010DF10602FEF7E5F89DF80730237155
:4037C0009DF806306371BDF81C000DF107010DF10602FEF7D7F89DF80730A3719DF80630E371BDF820000DF107010DF10602FEF7C9F89DF8073023729DF8063063720A20C8
:4038000004E04FF48060FEF7ADF8002002B070BD1481FF1F70B584B0C37813F001031ED000781F4BB3F88010B3F88220B3F884301C4D09B2009112B201921BB20293022152
:403840002A462423FFF796FF174CC2B228462146FEF7D2FA01462046FDF710FB1EE0EBB90279437903EB02239EB28279C37903EB02239DB2027A437A03EB02239CB2FEF789
:4038800029FB20B14FF40070FEF76CF806E0044BA3F88060A3F88250A3F8844004B070BD0885FF1F5C8DFF1F208DFF1FF0B585B007460D4614469DF8286000218DF80F1077
:4038C0008DF80E108DF80D108DF80C106B4908783946FEF7F3FA0123A3709D4203D1B523E3700420C7E0022D40F0C080B423E3706671634D0A3605EB8606706803AE009642
:403900000DF10F010DF10E020DF10D03FEF72CF89DF80F3063719DF80E30A3719DF80D30E3719DF80C302372686800960DF10F010DF10E020DF10D03FEF716F89DF80F30C2
:4039400063729DF80E30A3729DF80D30E3729DF80C302373A86800960DF10F010DF10E020DF10D03FEF700F89DF80F3063739DF80E30A3739DF80D30E3739DF80C3023741C
:40398000E86800960DF10F010DF10E020DF10D03FDF7EAFF9DF80F3063749DF80E30A3749DF80D30E3749DF80C302375286980B20DF10F010DF10E02FDF7E4FF9DF80F3069
:4039C00063759DF80E30A375FCF774FEFCF760FE688B80B20DF10F010DF10E02FDF7D2FF9DF80F30E3759DF80E302376254B586B80B20DF10F010DF10E02FDF7C3FF9DF8E4
:403A00000F3063769DF80E30A376E86900960DF10F010DF10E020DF10D03FDF7A5FF9DF80F30E3769DF80E3023779DF80D3063779DF80C30A377286A00960DF10F010DF174
:403A40000E020DF10D03FDF78FFF9DF80F30E3779DF80E3084F820309DF80D3084F821309DF80C3084F82230232004E04FF48060FDF778FF002005B0F0BD00BF1481FF1FF2
:403A8000CC84FF1F0885FF1F30B583B0C37813F0010317D00078164D0023009302212A462423FFF703FFC2B2124C28462146FEF7A3F920463021FDF7E1F920463021FDF7E1
:403AC00025FD13E093B90579427983791B0403EB0263C27903EB0223027A9C18FEF7FAF920B90A35044B03EB85056C6003B030BD5C8DFF1F208DFF1FCC84FF1F70B506465C
:403B00000D4614460C4908783146FEF7D7F90123A3709D420ED0022D06D17A23E3709DF810302371052070BD4FF48060FDF71AFF002070BD042070BD1481FF1F30B583B089
:403B40000446C37813F0010315D00478FDF7FAFC104D0090204602212A462423FFF7CEFF0D4CC2B228462146FEF746F920463021FDF784F90BE053B9FEF7ACF920B14FF4DB
:403B80000070FDF7EFFE02E02079FDF7D3FC03B030BD00BF5C8DFF1F208DFF1F70B584B006460D46144600218DF80F108DF80E108DF80D108DF80C10184908783146FEF7FB
:403BC0007DF90123A3709D4203D15723E370042021E0022D1AD15623E37003AB009308980DF10F010DF10E020DF10D03FDF7BCFE9DF80F3023719DF80E3063719DF80D30F3
:403C0000A3719DF80C30E371082004E04FF48060FDF7A8FE002004B070BD00BF1481FF1F30B583B0C37813F0010315D00478FCF773FD134D0090204602212A462423FFF7CB
:403C4000ADFF104CC2B228462146FEF7D5F820463021FDF713F910E07BB9027943791B0403EB0263827903EB0223C2799C18FEF731F910B92046FCF74BFD03B030BD00BFC8
:403C80005C8DFF1F208DFF1F08B5C37813F0010305D123B9FEF71EF908B9FCF739FD08BD704700BF704700BF704700BF704700BF704700BF704700BF704700BF704700BF16
:403CC000704700BF704700BF704700BF704700BF704700BF704700BF704700BF704700BF704700BF704700BF704700BF704700BF704700BF704700BF704700BF704700BF64
:403D0000704700BF704700BF704700BF704700BF704700BF704700BF704700BF704700BF704700BF704700BF704700BF704700BF704700BF704700BF704700BF704700BF23
:403D4000704700BF704700BF704700BF704700BF704700BF704700BF704700BF704700BF704700BF704700BF704700BF704700BF704700BF704700BF704700BF704700BFE3
:403D8000704700BF704700BF704700BF704700BF704700BF704700BF704700BF704700BF704700BF704700BF704700BF704700BF704700BF704700BF704700BF704700BFA3
:403DC000704700BF704700BF704700BF704700BF704700BF704700BF704700BF704700BF704700BF704700BF704700BF704700BF704700BF704700BF704700BF704700BF63
:403E0000704700BF704700BF704700BF704700BF704700BF704700BF704700BF704700BF704700BF704700BF70B506460D4614460D4908783146FEF741F80123A3709D4237
:403E400003D12B23E370042070BD022D06D12A23E370BDF910302371052070BD4FF48060FDF780FD002070BD1481FF1F30B583B0C37813F0010313D000780C4D00230093A2
:403E800002212A462423FFF7CFFFC2B2084C28462146FDF7B1FF01462046FCF7EFFF02E00BB9FEF717F803B030BD00BF5C8DFF1F208DFF1F70B584B006460D461446002147
:403EC0008DF80F108DF80E108DF80D108DF80C10644908783146FDF7F1FF0123A3709D4203D12D23E3700420B9E0022D40F0B2802C23E3705C4DE8880DF10F010DF10E02FE
:403F0000FDF740FD9DF80F3023719DF80E30637128890DF10F010DF10E02FDF733FD9DF80F30A3719DF80E30E37168890DF10F010DF10E02FDF726FD9DF80F3023729DF81F
:403F40000E30637228880DF10F010DF10E02FDF719FD9DF80F30A3729DF80E30E37268880DF10F010DF10E02FDF70CFD9DF80F3023739DF80E306373A8880DF10F010DF1EF
:403F80000E02FDF7FFFC9DF80F30A3739DF80E30E373FCF795FF0DF10F010DF10E02FDF7F1FC9DF80F3023749DF80E3063740020FCF7A8F80DF10F010DF10E02FDF7E2FCB5
:403FC0009DF80F30A3749DF80E30E3740120FCF799F80DF10F010DF10E02FDF7D3FC9DF80F3023759DF80E306375FCF78DFB03AB00930DF10F010DF10E020DF10D03FDF737
:40400000B3FC9DF80F30A3759DF80E30E3759DF80D3023769DF80C306376144B586B80B20DF10F010DF10E02FDF7ACFC9DF80F30A3769DF80E30E3760D4B1A8822775A880B
:4040400062779A79A277DA79E2771B7A84F82030212004E04FF48060FDF784FC002004B070BD00BF1481FF1F6C86FF1F0885FF1FA487FF1F38B5C37813F0010315D00D4D8D
:40408000007802212A462423FFF714FFC2B20A4C28462146FDF7B0FE2046302100F04AF920463021FDF732FA38BD0BB9FDF712FF38BD00BF5C8DFF1F208DFF1F70B582B008
:4040C00006460D46144600218DF807108DF80610744908783146FDF7F1FE0123A3709D4203D1D323E3700420DAE0022D40F0D380D223E3706C4DE8880DF107010DF1060298
:40410000FDF740FC9DF8073023719DF80630637128890DF107010DF10602FDF733FC9DF80730A3719DF80630E37168890DF107010DF10602FDF726FC9DF8073023729DF868
:404140000630637228880DF107010DF10602FDF719FC9DF80730A3729DF80630E37268880DF107010DF10602FDF70CFC9DF8073023739DF806306373A8880DF107010DF13F
:404180000602FDF7FFFB9DF80730A3739DF80630E373464B18880DF107010DF10602FDF7F1FB9DF8073023749DF806306374404B18880DF107010DF10602FDF7E3FB9DF846
:4041C0000730A3749DF80630E3743A4B586B80B20DF107010DF10602FDF7D4FB9DF8073023759DF806306375334B1B88A375334D28880DF107010DF10602FDF7C3FB9DF843
:404200000730E3759DF80630237668880DF107010DF10602FDF7B6FB9DF8073063769DF80630A376A8880DF107010DF10602FDF7A9FB9DF80730E3769DF806302377E88893
:404240000DF107010DF10602FDF79CFB9DF8073063779DF80630A37728890DF107010DF10602FDF78FFB9DF80730E3779DF8063084F8203068890DF107010DF10602FDF733
:4042800081FB9DF8073084F821309DF8063084F82230232004E04FF48060FDF763FB002002B070BD1481FF1F6C86FF1FC885FF1FD885FF1F0885FF1FA487FF1F4882FF1F30
:4042C00038B5C37813F0010315D00D4D007802212A462423FFF7F2FEC2B20A4C28462146FDF78AFD2046302100F024F820463021FDF70CF938BD0BB9FDF7ECFD38BD00BF41
:404300005C8DFF1F208DFF1F08B5C37813F0010302D10BB9FDF7DEFD08BD00BF002303E00021034AD15401331F2BF9DD704700BF8C8DFF1F10B40A4B19700A4B1A780A4B4A
:404340001A70002304E0C45C084AD4540133DBB28B42F8D30122064B1A705DF8044B7047A682FF1F8382FF1FA582FF1FC887FF1FA782FF1FFEE700BF08B5104E104D16E0EC
:4043800029686B68AC68002204E051F8040B43F8040B0432A242F8D1E868002203E0002143F8041B04328242F9D11035013E002EE6D105F023F9FCF723FBFEE701000000F5
:4043C0009C99000008B5134A134B1A60134A136843F40073136000230AE0032B03D8104A52F8231000E00F490F4A42F8231001332F2BF2D90D4B1A780D4B1A700A4A0D4BE5
:404400001A6000F0B9F903F0ABFE00220A4B1A6008BD00BF0004FA050CED00E014ED00E000000000754300000080FF1FBC7600400481FF1F08ED00E00081FF1FFEE700BF0F
:40444000F0B40022174611E050F82760F3B226F0FF0608E001EB420511F812406D78A5550132013BDBB2002BF4D101372A2FEBD9F0BC7047F0B4254B1B78DBB22448027886
:40448000D2B2244C2178C9B203F00706224D2E701B0901352B7042F00303037041F00303237014251D4B1D704CF20F051F331D80022511331D704023194D2B7002352B70E0
:4044C00006352B7002352B70042605F215152E70012610352E702025124E357080276836377023363570053633700F4B1D700F4D15331D60942518331D702170027044220D
:40450000A3F2E2231A70F0BC704700BFCF010049F8460040F94600406E5800401D51004001590040985A00402B5B00400201020208B50A46002105F092F808BD08B505F0AE
:4045400083F808BD38B501224B4B1A8018234B4A13700C224A490A8002310B700720023108801F2002310870002002310880502002310870052402310C8002310B700420F3
:404580000231088002310B7027200231088002310B703C483C49FFF7D1FF06223B4B1A7045F20E52EE3B1A80023B1C701B7843F2C82404E04FF4F07003F0C2FD013C24B1B9
:4045C000334B1B7813F0800FF4D114B90120FFF735FF4FF4A5622F4B1A8001224FF040231A7042F2512203F508731A80002419250CE0294B1B7803F0010343EA440404F025
:4046000003044FF4F07003F09BFD013D0DB1032CEFD115B90320FFF711FF204A4FF48073138052211E4B19701E4B1B78DBB21E490B70072313700023A1F29B610B7048201E
:40464000023108701370053213700222174B1A7004220A331A70164A137843F07F031370013A137843F007031370013A137843F08003137038BD00BF8040004082400040F7
:4046800084400040004100408C1400480043004010420040224200402542004004400040004200400F010049A146004001400040A243004001238340DBB2052825D8134A06
:4046C00012781A4221D110B4104913430B70104B53F820201844047E13782343137090F8203019440A794AB9094A02EB8301896A1A4492F834000A7802430A70034A134449
:404700001A7901321A715DF8044B7047B883FF1F8096000001238340DBB2052826D8144A12781A4222D010B4114922EA03030B70104B53F820201844047E137823EA04037B
:40474000137090F820000A181379013BDBB2137153B9084B03EB8002926A184490F83410137823EA010313705DF8044B704700BFB883FF1F8096000038B572B6594A137835
:4047800043F00403137000240BE0574963001A1952000A44506CB2F84810FFF7C9FE0134E4B2092CF1D9002410E04F49A3001A1952000A4452F8800F23445B000B4451684D
:4047C000B3F88820FFF7BAFE0134E4B2062CECD94FF090404549FFF733FE0A24444B1C70022203F521731A7042480421FFF7A0FE414842490422FFF7A1FE41480421FFF7F9
:4048000097FE40480421FFF793FE3F483F490422FFF794FE3E483F490422FFF78FFE3E483E490422FFF78AFE3D483E490422FFF785FE3D4A137843F0020313701032137845
:4048400043F002031370394D2B7843F040032B70A2F58632513A137843F010031370344834490822FFF76AFE334834492246FFF765FE334833492246FFF760FE3248334932
:404880000822FFF75BFE324832492246FFF756FE314832490822FFF751FE314831492246FFF74CFE304831490822FFF747FE304830492246FFF742FE84222F4B1A702F4AD1
:4048C000137843F00803137061222D4B1A70FFF739FEFFF7CFFD2B4829460E22FFF72EFE38BD00BFE846004080960000AC00004883580040007600405076004098140048CD
:404900000876004010760040187600409C14004820760040A014004828760040A414004830760040A814004803500140A04300400251004030140048C051004038140048D8
:40494000F051004044140048125100405014004820510040581400483251004064140048405100406C14004852510040781400486051004080140048DB04014022430040FD
:4049800000480040B043004008B50A280FD00C2802D0082806D102E04FF4805209E04FF4807206E0002003F0CFFC002201E04FF480620021094B198042F2107303FB02F3A8
:4049C00003F6C413064A82FB0302DB17C3EBE223044A1360044B198008BD00BFB48DFF1FAD8BDB68AC8DFF1FB08DFF1F38B503F0AFFB0446194A137843F0020313701032F8
:404A0000137843F00203137002F5AA521032137843F0030313701822114B1A70013B1A7802F0BF021A701A7842F003021A700E22053B1A700225A3F59753123B1D70094A66
:404A4000137843F0080313700A2003F095FC064B1D60204603F080FB38BD00BFAB4300400E5900402F5B004080E200E010B504460A280DD00C2802D0082804D101E0C22217
:404A800007E0422205E0002003F05EFCC22200E08222034B1A702046FFF776FF10BD00BF0A59004008B50120072103F083FC0120074903F06BFC074A137843F0060313703B
:404AC0000C20FFF7D3FF0022034B1A8008BD00BFF94A000009590040B28DFF1F08B5054B1B7823B9FFF7DEFF0122024B1A70FFF77DFF08BDC083FF1F704700BF084A1378BE
:404B000043F060031370A2F5A652133A137843F0020313701032137843F002031370704777580040054B1A7802F0FC021A701A7800F0030010431870704700BF5A580040C8
:404B400008B50320FFF7EEFF08BD00BF08B5054B1B7823B90122034B1A70FFF7F1FFFFF7CDFF08BDC183FF1FF0B583B086460F4616461D460B4C0423237000220092019298
:404B8000184671463A4603F07FFB207831462A4603F054FB2078022103F03EFB207803B0F0BD00BF1681FF1F08B50822054B1A600320054903F0EAFB0320072103F0FAFBB2
:404BC00008BD00BF80E100E0A54C000010B50824064B1C6003F0ECF9A0F5004000B2044B1B68044A1460184410BD00BF80E100E0C483FF1F00E100E038B505460824054B4B
:404C00001C604FF4004003F0CDF9034B1D60034B1C6038BD80E100E0C483FF1F00E100E0024B187800F00F00704700BF6464004040F00700014B1870704700BF84640040C8
:404C400008B50F20FFF7F4FFFFF7EAFF03F080FA054A137843F01003137003F07DFA0822024B1A6008BD00BF9464004000E100E008B503F0EFF94FF4004003F093F90022DC
:404C8000064B1A60064B1B7823B9FFF78DFF0122034B1A70FFF7D4FF08BD00BFC483FF1FC283FF1F0D4B1B78DBB213F0010F06D00B490A6802F5FF427F320A6007E013F073
:404CC000020F04D006490A68A2F500420A6013F0040F02D00022024B1A60704764640040C483FF1F08B5FBF769FE08BD014B1B681866704708ED00E04001C0B2014B18709B
:404D0000704700BF08E400E04FF48072014B1A60704700BF00E100E04FF48072014B1A60704700BF80E100E008B5FFF7F5FF0448FFF7DCFF0720FFF7DFFFFFF7E5FF08BDEF
:404D4000E54C0000F0B583B086460F4616461D460B4C05232370002200920192184671463A4603F091FA207831462A4603F066FA2078022103F050FA207803B0F0BD00BF5D
:404D80001781FF1F014B1870704700BF7B64004008B5FBF72BFE08BD014B1B685866704708ED00E04001C0B2014B1870704700BF09E400E04FF40072014B1A60704700BF63
:404DC00000E100E04FF40072014B1A60704700BF80E100E008B5FFF7F5FF0448FFF7DCFF0720FFF7DFFFFFF7E5FF08BD914D0000044A137803F07F03C001C0B2034313703A
:404E0000704700BF00510040044A137803F0F703C00000F00800184310707047C0510040084A137843F0040313701032137843F00403137002F66532137843F00103137012
:404E4000704700BFA3430040014B1870704700BF1B4F0040014B1878704700BF1B4F0040014B1880704700BF1C4F0040014B1880704700BF1E4F004008B5184B1A7802F0F6
:404E800001021A7016490A7802F0FC020A701A7842F004021A700B331A7802F0CF021A701A7842F030021A701A7802F0F0021A701A7842F00F021A700A4A137843F00103B4
:404EC000137040F28F10FFF7CBFF40F28F10FFF7CDFF0820FFF7B8FF08BD00BF184F00401A4F0040194F004008B5054B1B7823B9FFF7C2FF0122024B1A70FFF791FF08BD42
:404F0000C883FF1F054A137843F0080313701032137843F008031370704700BFA8430040054B1A7802F0FD021A701A7800F0020010431870704700BF2C580040014B187074
:404F4000704700BF835B0040064B1B78C3F3810303F19243063393F83831DBB2024A1370704700BF2C5800400B46004008B5064B1A7802F0F3021A701A7800F00C00104370
:404F80001870FFF7E1FF08BD2C58004010B50024054B1C7001331C702046FFF7E7FF2046FFF7BEFF10BD00BF2C58004008B5074B1B7823B9FFF7EAFF0122044B1A70FFF78B
:404FC000A1FF1C20FFF7BAFF08BD00BFC983FF1FF0B583B086460F4616461D460B4C03232370002200920192184671463A4603F04BF9207831462A4603F020F92078022117
:4050000003F00AF9207803B0F0BD00BF1881FF1F08B5FBF79BFC08BD014B1B68D866704708ED00E04001C0B2014B1870704700BF0BE400E04FF40062014B1A60704700BFBB
:4050400000E100E04FF40062014B1A60704700BF80E100E008B5FFF7F5FF0448FFF7DCFF0720FFF7DFFFFFF7E5FF08BD1150000008B5FBF71FFC08BD024B1B68C3F88C00E8
:40508000704700BF08ED00E04001C0B2014B1870704700BF13E400E04FF40022014B1A60704700BF00E100E04FF40022014B1A60704700BF80E100E008B5FFF7F5FF04489A
:4050C000FFF7DAFF0720FFF7DFFFFFF7E5FF08BD715000004FF40022014B1A60704700BF80E200E0014B1870704700BF72640040014B1870704700BF7A640040F8B503F03B
:4051000027F80546444A137843F0010313701032137843F0010313700127404B1F700226943B1E7002F5E2521B32137803F07F031370002003F020F9394C237803F0F903AE
:405140002370384A137803F0DF03137023783B432370384603F010F9282003F00DF9324B1A7802F07F021A701A7802F0BF021A70237833432370304603F0FEF8237843F024
:40518000040323700023294A13700132137004E0FF21274AD15401339BB2082BF8D9284602F0DAFF1720234903F0F0F81720072103F000F91520204903F0E8F81520072197
:4051C00003F0F8F818201D4903F0E0F81820072103F0F0F804201A4903F0D8F80420072103F0E8F80520174903F0D0F80520072103F0E0F80620144903F0C8F806200721E3
:4052000003F0D8F81620114903F0C0F81620002103F0D0F8F8BD00BFA54300409D6000409443004012600040F851004084600040C48DFF1FD95C0000D55C0000A95A000037
:40524000255C00005D5C0000955C0000E15C000038B5002304E00124244AD4542344DBB2012BF8D9224B4FF400021A604FF080721A6010221A6020221A6040241C600725DB
:405280001C4C25704FF480041C601B4B1A7000221A4B1A7011B1012904D007E00222184B1A7006E00322164B1A7002E00322144B1A70144B18700023134A1370134A137045
:4052C000134A1370134A1370134A1370134A13700322134B1A708022203B1A70012002F02FFF04220F4B1A7038BD00BF6C8EFF1F00E100E09E6000409C600040648EFF1F38
:4053000009600040658EFF1FD78DFF1FD88DFF1FD68DFF1F6A8EFF1FD98DFF1FD58DFF1F286000401260004038B505460C46064B1B7823B9FFF7E2FE0122034B1A70284610
:405340002146FFF785FF38BDCA83FF1F002304E001210E4AD1540B44DBB2012BF8D900230B4A13700B4A13700B4A13700B4A13700B4A13700B4A13700B4A137003220B4BE7
:405380001A708022203B1A70704700BF6C8EFF1F648EFF1FD78DFF1FD88DFF1FD68DFF1F6A8EFF1FD98DFF1FD58DFF1F28600040014B1878704700BFD78DFF1F0138C0B257
:4053C00007280CD80001C0B2064BC25C02F00F020133C35C43EA0220023880B270470020704700BF0C60004010B5044600EB40008000184B1844037913F0800F03D00A0C3E
:405400004FF4804302E00B0C4FF48042022C0AD0032C0FD0012C13D10020014602F066FE0D4B18550CE00020014602F041FE0A4B185505E00020014602F01AFE064B185565
:40544000631EDBB2072B03D802F042FF034B185510BD00BFF48DFF1FB88DFF1FC48DFF1F2DE9F0470446451EEDB2072D6FD80F4616462D01EDB2DFF8EC80A84400EB400337
:405480009B00344A1344DB889BB2C3F500739E4207D900EB40039B001344DE88C6F50076B6B204EB44039B002A4A1344DB7843EA1623294AAB54F3B20132AB54274B1B5D3A
:4054C000FF2B03D120463946FFF78EFF04EB44039B00204A134400225A707FB376B3DFF8889019F8040002F071FEDFF870A01AF804003146FE22112302F004FF1FFA88F2B8
:405500001AF80400B9B202F011FF19F804001AF8041002F0ADFE19F80400012102F03AFE05F1804505F5C1452B7843F002032B702B7803F0FD032B70BDE8F08704EB4404FA
:40554000A400044B1C446379DBB2054AAB54BDE8F08700BFF48DFF1F0C600040C48DFF1F0E60004088600040B88DFF1F2DE9F0470546431EDBB2072B44D80F46904600292B
:4055800042D01B01DCB2DFF88C90A144FFF716FF0646804500D846461D4B5B5DFF2B03D128463946FFF720FFDFF86C8018F8050002F00CFEDFF858A01AF805003146FE2266
:4055C000122302F09FFE1FFA89F11AF80500BAB202F0ACFE18F805001AF8051002F048FE18F80500012102F0D5FD04F1804303F5C1431A7842F002021A701A7802F0FD023D
:405600001A7002E0002600E000263046BDE8F087C48DFF1F88600040B88DFF1F431EDBB2072B0ED830B41B01DBB206494400221892000A44002555705279D2B202495A54D4
:4056400030BC7047F48DFF1F0E60004008B51F4B1B7813F0800F0CD01D4B1B78DBB2212B2DD11C4B07221A801B4A5A6000F08AFA08BD164B1B7813F0800F22D1144B1B7853
:40568000DBB2202B02D0222B0DD01CE0114B07221A80114A5A60114A137843F00103137000F09AFA08BD0E4B1B780E4A13800B4A137843F00203137000F024F908BD002099
:4056C00008BD002008BD002008BD00BF0060004001600040E48DFF1F1C81FF1FD28DFF1F02600040D08DFF1F08B50022034B1A70034B1878FFF792FF08BD00BFD28DFF1F1A
:40570000CE8DFF1F38B505460C460E4B1B7803EB43039B000C4A13441B899BB28B420AD2084B1B7803EB43039B0013441C89A4B2002002F009FE034B187829462246FFF799
:405740008FFE38BDCF8DFF1FF48DFF1F044B1B7803EB43039B00034A13445878704700BFCE8DFF1FF48DFF1F044B1B7803EB43039B00034A13445878704700BFCF8DFF1FC6
:40578000F48DFF1F08B50146064B18781B7803EB43039B00044A13441A8992B2FFF7E6FE08BD00BFCE8DFF1FF48DFF1F1E4B19781E4A13880B449BB21380002311E003F1CD
:4057C000804101F5C0411A4A50680078C0B208705168013151600133DBB21188013989B21180134A128892B20AB1072BE7D90E4A1278D2B2082A00D05BB10E490A7882F0D0
:4058000080020A700F210C4A117002210B4A117004E0022208490A7008490A70024A1370074A1370704700BFD58DFF1F628EFF1FE48DFF1FDA8DFF1FD48DFF1F648EFF1F84
:40584000F08DFF1F0222074B1A708022064B1A700F22064B1A700023054A1370054A137001207047648EFF1FDA8DFF1FD48DFF1FD58DFF1FF08DFF1F08B5FFF797FF08BD28
:4058800010B41A4B197801F00F010239C9B2184A13880B449BB21380002013E0154B5C6800F1804202F5C0421278D2B222705A6801325A600130C0B20139C9B21A88013AE4
:4058C00092B21A800B4B1B889BB20BB10029E5D1094B1970094A137883F0800313700B22074B1A705DF8044B704700BF29600040628EFF1FE48DFF1FF08DFF1FDA8DFF1F0C
:40590000D48DFF1F0623064A1370064A13708022054B1A700022054B1A700120704700BF648EFF1FD48DFF1FDA8DFF1FF08DFF1F064B9B6843B1054B9A6810709A680449F2
:405940000988518000229A60704700BFE48DFF1F628EFF1F08B5134B1A78D2B21A701B78DBB213F0800F02D00F4A137008BD0220FFF7DEFF0D4B1B7803F06003202B05D060
:40598000402B06D043B900F089FE06E002F02AFD03E001F04DF800E0002010B90322024B1A7008BD28600040D48DFF1F0060004008B5084B1978084A13880B449BB21380ED
:4059C0000022064B1A700120FFF7B2FF0322044B1A7008BDD58DFF1F628EFF1F648EFF1FD48DFF1F08B50B4B1B78DBB2042B06D0062B07D0022B0BD1FFF7DAFF08BDFFF72F
:405A00003FFF08BD0320FFF793FF0322024B1A7008BD00BF648EFF1FD48DFF1F08B50022044B1A700120FFF783FF0322024B1A7008BD00BF648EFF1FD48DFF1F08B50B4B36
:405A40001B7813F0FF0F07D0084A137843F0800307490B70002313700022064B1A700120FFF766FF0322044B1A7008BD6A8EFF1F08600040648EFF1FD48DFF1F08B5094B0D
:405A80001B78DBB2042B06D0062B07D0022B07D1FFF7F2FE08BDFFF7C1FF08BDFFF7CEFF08BD00BF648EFF1F08B5284B1B78DBB213F0100F48D013F0800F0CD003F00F033A
:405AC000012B16D1FFF746FF214B1B7813F0800F11D1012312E013F0400F03D0FFF7CEFF01230BE013F0200F07D0FFF77BFF012304E0002302E0002300E0002323B3134BF8
:405B00001B7813F0800F1FD1124B1B78124A12781343124A13701278D2B29A4214D10C4B1B78DBB2094A127812F0800F07D1084B1B78DBB2054A1370137803F00F03044A96
:405B40001278D2B29342EAD108BD00BF28600040D48DFF1FDA8DFF1FF08DFF1F296000400022064B1A80064B9B682BB1044A916800230B7092685380704700BF628EFF1F60
:405B8000E48DFF1F08B5104B1B889BB213B9FFF759FE16E002220D4B1A7000220C4B1A70FFF7DEFF0B4B1A78013B1B7843EA0223054A128892B29A4201D9034A1380FFF7A1
:405BC000F5FD012008BD00BFE48DFF1F648EFF1FDA8DFF1F0760004008B504220C4B1A7080220C4B1A70FFF7BBFF0B4B1A78013B1B7843EA0223094A128892B29A4201D95C
:405C0000064A13800B22064B1A70012008BD00BF648EFF1FDA8DFF1F07600040E48DFF1FD48DFF1F0A4B1B780A4B1B7B03F00303012B04D0074AD37B83F08003D3730122C0
:405C4000044B5A73044A137803F0FE03137070470E600040F48DFF1F0B6000400A4B1B780A4B1B7E03F00303012B04D0074AD37E83F08003D3760122044B5A76044A13783E
:405C800003F0FD03137070471E600040F48DFF1F0B6000400C4B1B780C4B93F8243003F00303012B06D0094A92F8273083F0800382F827300122054B83F82520044A13788D
:405CC00003F0FB03137070472E600040F48DFF1F0B600040704700BF08B5FFF737FB08BDF0B5274B1878C0B218700021012343E010F0010F3BD00E46224A8D188A5CD2B24E
:405D000012F0010F19D003EB4304A4001E4F3C44247914F0800F10D001F1804404F5C144277807F0FE07277003EB4304A400164F3C446479E4B2154FCC5512F0020F15D0FE
:405D400003EB4304A400104F3C44247914F0800F0CD1BE465C00E718BF0077444FF0000C87F801C07C79E4B2084FF4552A701031C9B20133DBB240080028B9D1F0BD00BF52
:405D80009F60004082600040F48DFF1F0E60004008B50B4B18780138C0B200F0F3F9094B1B78DBB200EBC30042690749CB5C02EBC3035B68596A0B78044A1380516008BDB4
:405DC000D78DFF1F04600040E08DFF1FE48DFF1F08B50D4B18780138C0B200F0D3F90B4B1B78DBB200EBC30042690949CB5C02EBC3035B68DB69597813F8022B42EA0122FD
:405E000004490A804B6008BDD78DFF1F04600040E08DFF1FE48DFF1F10B500221A4B1A801A4B18780138C0B200F0ACF9184B1B78DAB2184B1B78DBB200EBC3004169012B37
:405E400020D81548C35C01EBC3014968531EDBB2022B17D802F10053013B01EBC3000F4A1278D2B211F8333093420BD3406802EB4202920081184C68034B5C60825A1A8044
:405E80008A689A6010BD00BFE48DFF1FD78DFF1F0360004004600040E08DFF1F0260004008B55F4B1B78DAB25E4B1B7813F0800F4ED05D4B1B78013B052B00F29380DFE800
:405EC00003F0222C3C919103584B1B78DBB2212B0AD1FFF75DFF564B1B889BB2002B00F08380FFF74FFE08BD504B1B78DBB2222B7CD1FFF76DFF4E4B1B889BB2002B77D05B
:405F0000FFF740FE08BDFFF787FF494B1B889BB2002B6FD0FFF736FE08BD012A6CD8454B1B7813F0FF0F69D1414901230B80424B13444B60FFF726FE08BD012A60D83C49A3
:405F400001230B803D4B13444B60FFF71BFE08BD344B1B7813F0800F54D1334B1B78DBB20A2B0DD00B2B2ED0092B4DD1FFF754FF2F4B1B889BB2002B48D0FFF72DFE08BD39
:405F8000012A45D82B4B1B7813F0FF0F42D1274B1B78DBB228498B548B5C2949895CDBB28B4203D20021264B995409E0244B9B5CDBB2012B04D9204B9B5CDBB220498B5482
:405FC000FFF7A0FC08BD012A26D81A4B1B78DBB2012B23D8174B1B78DBB218498B54FFF791FC08BD002008BD002008BD002008BD002008BD002008BD002008BD002008BD28
:40600000002008BD002008BD002008BD002008BD002008BD002008BD002008BD002008BD04600040006000400160004003600040E48DFF1F02600040748EFF1F6C8EFF1F47
:40604000708EFF1F10B584B00446154B0FCB0DF1100E0EE90F0004B322232370032363700021022217E001F1924393F80031DBB20131C9B204A800EB131010F8100CA05412
:40608000901C03F00F030DF1100E734413F8103C23540432D2B2212AE5D904B010BD00BF48970000F0B50020012455E0054600F1804303F5C1430C221A701F222A4BC2540E
:4060C000224604EB44039B0028490B445B7913F0FF0F0FD004EB44039B000B441B7913F0800F03D00C21224BC15406E00821204BC15402E080211E4BC1541C4F530099181C
:40610000890039440E89C6F30726DFF874E005F80E600E89F6B20EF1010E05F80E60CE88F6B20EF1790E05F80E60CE88C6F307260EF1010E05F80E60C988C9B20D4EA955C5
:4061400013449B003B44DB88C3F307230A4AAB540134E4B21030C0B210F0800FA6D0FF22064B1A70F0BD00BF81600040F48DFF1F0E60004084600040856000400A600040CD
:406180000C600040074B1B78074A02EBC30253681A7A824203D903EBC003D86870470020704700BF658EFF1FC8970000F8B54C4B1B7813F0FF0F00F09280494B1878013867
:4061C000C0B2FFF7DFFF057AC068002384E00178444A525C444C645CD2B2A24279D0414A525CD2B24478A24273D1404A1278D2B291426ED1847804F07F02511E0901C9B2C5
:40620000C67806F0030614F0800F12D002EB4204A400374F3C4401276770BE4201D1072600E00D2602EB4204A400314F3C44667111E002EB4204A4002D4F3C44002767704E
:40624000012E01D1052600E0092602EB4204A400274F3C4466710126264C0E55B0F804C0234F02FA06FE0EEB0206B600BC19A4F808C090F802C084F804C090F803C007F8A1
:4062800006C00026E6702689C6F30726DFF870C001F80C602689F6B20CF1010C01F80C60E688F6B20CF1790C01F80C60E688C6F307260CF1010C01F80C60E488E4B20E4EB7
:4062C0008C55724492003A44D288C2F307220B4C0A5508300133DBB2AB42FFF478AFF8BDD78DFF1FE08DFF1F608EFF1F04600040F48DFF1F0E600040846000408560004001
:406300000C600040034B1A78034B03EBC2035868704700BF658EFF1FC897000008B5074B18780138C0B2FFF72DFF28B14268127900EBC203586908BD002008BDD78DFF1F13
:40634000F8B500220EE0764E53009D18AD00741900217155A1706170E17061712181A1720132D2B2082AEED940B90AE000226D49CA546D49CA540133DBB200E00023012B6C
:40638000F4D96A4B1B7813F0FF0F00F0C780674B18780138C0B2FFF7F5FE4368DB7913F0400F05D0624A137843F00103137004E05F4A137803F0FE031370057A012482E0FE
:4063C000C16800237BE08A7802F07F02944273D1264604EB44029200514F3A44128992B28F88BA4206D204EB44029200DFF830E1724417810A784B4FBA5CD2B24F78BA42D6
:406400005AD1CA7802F0030291F90270002F22DA06EB4607BF00DFF808E177444FF0010E87F801E0724502D14FF0070C01E04FF00D0C06EB4607BF00DFF8E4E0774487F8C4
:4064400005C08F790A2F01D0022F26D1032A24D0384A147021E006EB4607BF00DFF8C0E077444FF0000E87F801E0012A02D14FF0050C01E04FF0090C06EB4607BF00DFF8C2
:40648000A0E0774487F805C08F790A2F01D0022F03D1032A01D0284A147091F802C0204F4FEA460E0EEB060292003A4482F804C0CA787644B600BA5508310133DBB2AB4214
:4064C00081D30134E4B2082C7FF67AAFC06800220CE0837803F07F0310F8084B03EB43039B0016490B449C700132D2B2AA42F0D3FFF714FF124B1860002001220AE0084C5C
:406500005300991889002144C8800B89184480B20132D2B2082AF2D9FFF7C4FDF8BD00BFF48DFF1FE08DFF1F608EFF1FD78DFF1FD98DFF1FCF8DFF1FCE8DFF1FFC8DFF1F4A
:40654000DC8DFF1F38B5144B1B7803F07F035A1ED2B21101C8B2072A1CD8104C5D00EA1892002244917841F0010191700021D170517841F002015170137913F0800F03D092
:406580008D22074BC25402E08922054BC254FFF7B9F938BD002038BD04600040F48DFF1F0E600040244B1B7803F07F035A1ED2B21101C9B2072A3CD810B55A001A449200DA
:4065C0001E480244907800F0FE0090700020D0701B4C085D00F07F000855507800F0FD005070127912F0800F10D003EB43039B00124A13445B78DBB2012B03D10C22114B24
:40660000CA5413E00D220F4BCA540FE003EB43039B000A4A13445B78DBB2012B03D10822084BCA5402E00922064BCA54FFF76AF910BD0020704700BF04600040F48DFF1FC3
:406640000C6000400E60004010B50F4B1C78E4B20E4B18780138C0B2FFF794FD43681B799C420CD2012C0CD8094A135DDBB209490B55094B1B78DBB21355012010BD002064
:4066800010BD002010BD00BF04600040D78DFF1FE08DFF1F608EFF1F0260004010B50022994B1A80994B1B7813F0800F00F0B880974B1B78DBB20A2B00F29181DFE813F067
:4066C00072008F018F018F018F018F010B008F019D008F01A5008F4B1B78DBB2012B09D1FFF710FE4268884B5A6012221A80FFF749FA10BD874B1B78DBB2022B16D103F1E2
:40670000804303F5C0431878FFF73CFD002800F0688142687C4B5A605A68D1785A68927842EA01221A80FFF72DFA10BD794B1B78DBB2032B05D032E00A7811440133DBB275
:4067400001E000237449754A1278D2B29A4203D90A7812F0FF0FEFD1704B1B78DBB2EE2B00D16F496D4B1B7813F0FF0F0BD06B4B1B78DBB26B4A127C934204D16A4C2046EE
:40678000FFF760FC21460B7813F0FF0F00F02B810B785D4A13805160FFF7F4F910BD01F021FE10BD594B1B7813F0030317D0022B40F01B8154490B805C4B1B7803F07F03FE
:4067C00003EB43039B005A4A13449A78D2B2594B1A7000225A704B60FFF7D4F910BD4A4902230B80544B1A78D2B2524B1A7000225A704B60FFF7C6F910BD434B01221A8061
:406800004E4A5A60FFF7BEF910BD3F4A01231380464B1B784A490B445360FFF7B3F910BD3B4B1B78013B0A2B00F2E180DFE813F04700DF00A400DF000B00DF00DF00DF002C
:406840001300DF003000354B1B78DBB23D4A1370FFF758F810BD314B1B7803F0FF041BB1601EC0B2FFF78EFC04B110B9002C40F0C080324B1B78DBB29C4206D02F4B1C7087
:406880000120314B1870FFF75BFDFFF73BF810BDFFF7DAFE002800F0AE80244B1C78E4B22A4B1C700122284B1A70FFF77FFC244B1B5DDBB2264A1355FFF724F810BD134BA7
:4068C0001B7803F00303012B44D073B1022B40F0948003F1804303F5C0431B7813F0FF0F40F08D80FFF75EFE10BD0C4B1B78DBB2012B40F08680104A137803F0FD03137051
:40690000FFF700F810BD00BFE48DFF1F0060004001600040036000406098000002600040B497000058990000AC8EFF1F04600040F48DFF1FCC83FF1FD98DFF1FD78DFF1F86
:40694000E08DFF1F6A8EFF1FD68DFF1FD88DFF1F608EFF1F314B1B78DBB2012B53D8304B187802331B78DBB22E49CA5C22EA0002CA54FEF7C7FF10BD2B4B1B7803F00303C0
:40698000012B1AD063B1022B3FD103F1804303F5C0431B7813F0FF0F39D1FFF7D3FD10BD1F4B1B78DBB2012B33D1204A137843F002031370FEF7A6FF10BD184B1B78DBB229
:4069C000012B28D8164B187802331B78DBB21549CA5C22EA0002CA54FEF794FF10BD002010BD002010BD002010BD002010BD002010BD002010BD002010BD002010BD002098
:406A000010BD002010BD002010BD002010BD002010BD002010BD002010BD00BF0460004002600040688EFF1F00600040D98DFF1F08B50B4B1B7813F0800F0CD0094B1B78C3
:406A4000DBB2012B09D1084B084A5A6012781A80FFF798F808BD002008BD002008BD00BF0060004001600040E48DFF1F8C970000014B1870704700BF77650040014B1878F7
:406A8000704700BF77650040024A137843F0010313707047004E004010B50222114B1A7081220E3B1A70082202331A700D2211331A70002401331C704FF400420A4B1A600B
:406AC0000F20072101F076FC0F20084901F05EFC1022074B1A70074B1C70074B1C70074B1C7010BDD649004080E100E04D6B0000768EFF1F848EFF1F858EFF1F7C8EFF1F99
:406B000008B501F025FB064A137843F0040313701032137843F00403137001F01DFB08BDA543004008B5074B1B7823B9FFF7B4FF0122044B1A70FFF7E3FF4FF40042024BA2
:406B40001A6008BDD083FF1F00E100E038B5A44B1C78E4B2A34B1B7813F0400F00F0378114F0010F00F01B819E4B1B78453B052B00F21281DFE813F006008200100110015E
:406B80000600DE0004F0DF0504F00A04082C42D1944B1B78DBB2452B35D1934B1B7813F0FF0F10D0914B1B681B78DBB2904A137004228B4B1A7001228E4B1A704622894BD5
:406BC0001A702C46EBE08C4B1B7813F0020F0DD08A4A137843F00A0313706022814B1A704FF40042864B1A602C46D8E0854A137843F0100313701022834B1A700422023B6F
:406C00001A702C46CBE00022754B1A704A22754B1A702C46C3E00A2C2BD1784A137843F0A0031370744B1B7813F0020F14D06D4B1B7813F0080F01D0092300E00A236F4A2C
:406C400011780B4313706022664B1A704FF400426B4B1A602C46A2E06A4A137843F0100313701022684B1A700422023B1A702C4695E0002001F068FB2C4690E014F0020F9E
:406C800035D15C4B1B78584A1278DBB2934210D2584A1378DBB255490968CB5CDBB254490B7004214E4B197013780133DBB2137075E0514B1B7813F0020F0CD04F4A1378E1
:406CC00043F00A0313706022464B1A704FF400424B4B1A6063E04B4A137843F0100313701022494B1A700422023B1A7057E0424B1B7813F0020F0CD0404A137843F09A030A
:406D000013706022374B1A704FF400423C4B1A6045E03C4A137843F01003137010223A4B1A700422023B1A70344A137843F09003137034E0354A1378DBB2354908682C492F
:406D40000978C9B2C15413780133DBB213701378304A1278DBB2934203D21022204B1A701DE0254B1B7813F0020F0CD0234A137843F00903137060221A4B1A704FF40042A6
:406D80001F4B1A600BE01F4A137843F0100313700022134B1A7002E0002001F0D5FA14F0200F1CD00F4B1B7813F0080F01D0012300E00223114A11780B431370114A1378C0
:406DC00003F0EF0313701022064B1A7038BD054B1B7813F0100F02D11022024B1A7038BDD7490040768EFF1F7D8EFF1F788EFF1FD84900407C8EFF1F878EFF1F848EFF1F98
:406E000080E100E0D6490040D9490040858EFF1F808EFF1F868EFF1F002948D070B40C4626490978C9B2102906D12549097811F0080F11D1002112E020490978C9B26029A5
:406E40000CD14FF400451F490D601F4D297801F0F7012970002102E0012100E0022149BB4526164D2E700026184D2E70184D2A70184A1460184A1370134C227802F0FD02E4
:406E800022704200D2B21548027013F0010F06D012220B4B1A700422023B1A7002E00122074B1A704FF400420D4B1A6002E0022108467047084670BC704700BF768EFF1F6D
:406EC000D949004080E200E0848EFF1F7C8EFF1F7D8EFF1F788EFF1F878EFF1FD849004000E100E000294AD070B40C4627490978C9B2102906D12649097811F0080F11D1D5
:406F0000002112E021490978C9B260290CD14FF4004520490D60204D297801F0F7012970002102E0012100E0022159BB4926174D2E700026194D2E70194D2A70194A1460D6
:406F4000194A1370144C227802F0FE0222704200D2B242F001021548027013F0010F06D012220B4B1A700422023B1A7002E00122074B1A704FF400420D4B1A6002E00221BC
:406F800008467047084670BC704700BF768EFF1FD949004080E200E0848EFF1F858EFF1F868EFF1F808EFF1F878EFF1FD849004000E100E01A4B1B78DBB2102B29D1194BE4
:406FC0001B7813F0080F26D14FF40042164B1A604000C0B229B140F001004922104B1A7002E045220E4B1A70104B1870012201331A700F4B1B7813F0010FFAD00C4B1B78DC
:4070000003F00A030A2B08D11022054B1A700320704702207047012070470020704700BF768EFF1FD949004080E100E0D8490040D7490040014B188880B2704794400040A6
:40704000024B187800F00700704700BF9640004070B504460D46FFF7F3FF0646FFF7EAFF844257D02C4B1B7803F02003DAB296B900B184B938B9294B1C80294A137803F013
:40708000BF03137070BD264A137843F040031370224B1C8070BD22B3002322490B7020260F310E7004310B700C390B7803F07F030B701B4B1B7813F0080F00D08CB91A4B5D
:4070C00018800721013B1970164B1B7813F0010FFAD111490B7803F0DF030B700021114B19700D4B1B7813F0200F0DD00E4B1C800DB1032200E001220A4B1A70094B1B786B
:4071000013F0010FFAD170BD044B1C8002490B7813430B7070BD00BFA243004094400040964000400140004002400040084A137843F0010313701032137843F0010313705E
:4071400002F64D32137843F001031370704700BFA3430040014B1880704700BF044F0040014B1880704700BF064F0040014B1870704700BF034F004008B5194A137843F021
:40718000020313700232137803F08F0343F010031370144B1A7802F0CF021A701A7842F030021A701A7802F0F0021A701A7842F00F021A70FF20FFF7CDFF7F20FFF7D0FFD8
:4071C0000020FFF7D3FF084A137843F00103137002F65E32137843F00103137008BD00BF004F00400B4F0040A343004008B5054B1B7823B9FFF7C0FF0122024B1A70FFF74F
:4072000095FF08BDD183FF1FF0B583B086460F4616461D460B4C06232370002200920192184671463A4601F02FF8207831462A4601F004F82078022100F0EEFF207803B075
